{
  "contractName": "NFT_Market",
  "abi": [
    {
      "inputs": [
        {
          "internalType": "string",
          "name": "id",
          "type": "string"
        },
        {
          "internalType": "string",
          "name": "name",
          "type": "string"
        },
        {
          "internalType": "address",
          "name": "owner",
          "type": "address"
        },
        {
          "internalType": "uint256",
          "name": "price",
          "type": "uint256"
        },
        {
          "internalType": "string",
          "name": "description",
          "type": "string"
        },
        {
          "internalType": "string",
          "name": "imageURL",
          "type": "string"
        }
      ],
      "name": "add_nft",
      "outputs": [
        {
          "components": [
            {
              "internalType": "string",
              "name": "id",
              "type": "string"
            },
            {
              "internalType": "string",
              "name": "name",
              "type": "string"
            },
            {
              "internalType": "address",
              "name": "owner",
              "type": "address"
            },
            {
              "internalType": "uint256",
              "name": "price",
              "type": "uint256"
            },
            {
              "internalType": "string",
              "name": "description",
              "type": "string"
            },
            {
              "internalType": "string",
              "name": "imageURL",
              "type": "string"
            }
          ],
          "internalType": "struct NFT_Market.NFT",
          "name": "",
          "type": "tuple"
        }
      ],
      "stateMutability": "nonpayable",
      "type": "function"
    },
    {
      "inputs": [],
      "name": "get_nft_list",
      "outputs": [
        {
          "internalType": "string[]",
          "name": "",
          "type": "string[]"
        }
      ],
      "stateMutability": "view",
      "type": "function",
      "constant": true
    },
    {
      "inputs": [
        {
          "internalType": "string",
          "name": "id",
          "type": "string"
        }
      ],
      "name": "get_nft",
      "outputs": [
        {
          "components": [
            {
              "internalType": "string",
              "name": "id",
              "type": "string"
            },
            {
              "internalType": "string",
              "name": "name",
              "type": "string"
            },
            {
              "internalType": "address",
              "name": "owner",
              "type": "address"
            },
            {
              "internalType": "uint256",
              "name": "price",
              "type": "uint256"
            },
            {
              "internalType": "string",
              "name": "description",
              "type": "string"
            },
            {
              "internalType": "string",
              "name": "imageURL",
              "type": "string"
            }
          ],
          "internalType": "struct NFT_Market.NFT",
          "name": "",
          "type": "tuple"
        }
      ],
      "stateMutability": "view",
      "type": "function",
      "constant": true
    },
    {
      "inputs": [
        {
          "internalType": "string",
          "name": "id",
          "type": "string"
        },
        {
          "internalType": "string",
          "name": "name",
          "type": "string"
        },
        {
          "internalType": "address",
          "name": "owner",
          "type": "address"
        },
        {
          "internalType": "uint256",
          "name": "price",
          "type": "uint256"
        },
        {
          "internalType": "string",
          "name": "description",
          "type": "string"
        },
        {
          "internalType": "string",
          "name": "imageURL",
          "type": "string"
        }
      ],
      "name": "mod_nft",
      "outputs": [
        {
          "components": [
            {
              "internalType": "string",
              "name": "id",
              "type": "string"
            },
            {
              "internalType": "string",
              "name": "name",
              "type": "string"
            },
            {
              "internalType": "address",
              "name": "owner",
              "type": "address"
            },
            {
              "internalType": "uint256",
              "name": "price",
              "type": "uint256"
            },
            {
              "internalType": "string",
              "name": "description",
              "type": "string"
            },
            {
              "internalType": "string",
              "name": "imageURL",
              "type": "string"
            }
          ],
          "internalType": "struct NFT_Market.NFT",
          "name": "",
          "type": "tuple"
        }
      ],
      "stateMutability": "nonpayable",
      "type": "function"
    },
    {
      "inputs": [
        {
          "internalType": "string",
          "name": "id",
          "type": "string"
        }
      ],
      "name": "del_nft",
      "outputs": [
        {
          "internalType": "bool",
          "name": "",
          "type": "bool"
        }
      ],
      "stateMutability": "nonpayable",
      "type": "function"
    }
  ],
  "bytecode": "0x608060405234801561001057600080fd5b506123e0806100206000396000f3fe608060405234801561001057600080fd5b50600436106100575760003560e01c80630ce6a97a1461005c5780631662db351461008c5780635d3ee946146100bc5780636119d840146100da578063e30208721461010a575b600080fd5b61007660048036038101906100719190611643565b61013a565b604051610083919061189f565b60405180910390f35b6100a660048036038101906100a191906119f1565b610734565b6040516100b39190611a55565b60405180910390f35b6100c4610a63565b6040516100d19190611b32565b60405180910390f35b6100f460048036038101906100ef9190611643565b610b3c565b604051610101919061189f565b60405180910390f35b610124600480360381019061011f9190611b54565b6110f8565b604051610131919061189f565b60405180910390f35b61014261148d565b600073ffffffffffffffffffffffffffffffffffffffff1660008c8c60405161016c929190611bd1565b908152602001604051809103902060020160009054906101000a900473ffffffffffffffffffffffffffffffffffffffff1673ffffffffffffffffffffffffffffffffffffffff16146101f4576040517f08c379a00000000000000000000000000000000000000000000000000000000081526004016101eb90611c47565b60405180910390fd5b6040518060c001604052808c8c8080601f016020809104026020016040519081016040528093929190818152602001838380828437600081840152601f19601f8201169050808301925050505050505081526020018a8a8080601f016020809104026020016040519081016040528093929190818152602001838380828437600081840152601f19601f8201169050808301925050505050505081526020018873ffffffffffffffffffffffffffffffffffffffff16815260200187815260200186868080601f016020809104026020016040519081016040528093929190818152602001838380828437600081840152601f19601f82011690508083019250505050505050815260200184848080601f016020809104026020016040519081016040528093929190818152602001838380828437600081840152601f19601f8201169050808301925050505050505081525060008c8c604051610359929190611bd1565b9081526020016040518091039020600082015181600001908161037c9190611e73565b5060208201518160010190816103929190611e73565b5060408201518160020160006101000a81548173ffffffffffffffffffffffffffffffffffffffff021916908373ffffffffffffffffffffffffffffffffffffffff1602179055506060820151816003015560808201518160040190816103f99190611e73565b5060a082015181600501908161040f9190611e73565b5090505060018b8b90918060018154018082558091505060019003906000526020600020016000909192909192909192909192509182610450929190611f50565b5060008b8b604051610463929190611bd1565b90815260200160405180910390206040518060c001604052908160008201805461048c90611c96565b80601f01602080910402602001604051908101604052809291908181526020018280546104b890611c96565b80156105055780601f106104da57610100808354040283529160200191610505565b820191906000526020600020905b8154815290600101906020018083116104e857829003601f168201915b5050505050815260200160018201805461051e90611c96565b80601f016020809104026020016040519081016040528092919081815260200182805461054a90611c96565b80156105975780601f1061056c57610100808354040283529160200191610597565b820191906000526020600020905b81548152906001019060200180831161057a57829003601f168201915b505050505081526020016002820160009054906101000a900473ffffffffffffffffffffffffffffffffffffffff1673ffffffffffffffffffffffffffffffffffffffff1673ffffffffffffffffffffffffffffffffffffffff1681526020016003820154815260200160048201805461061090611c96565b80601f016020809104026020016040519081016040528092919081815260200182805461063c90611c96565b80156106895780601f1061065e57610100808354040283529160200191610689565b820191906000526020600020905b81548152906001019060200180831161066c57829003601f168201915b505050505081526020016005820180546106a290611c96565b80601f01602080910402602001604051908101604052809291908181526020018280546106ce90611c96565b801561071b5780601f106106f05761010080835404028352916020019161071b565b820191906000526020600020905b8154815290600101906020018083116106fe57829003601f168201915b50505050508152505090509a9950505050505050505050565b60008073ffffffffffffffffffffffffffffffffffffffff1660008360405161075d9190612051565b908152602001604051809103902060020160009054906101000a900473ffffffffffffffffffffffffffffffffffffffff1673ffffffffffffffffffffffffffffffffffffffff16036107e5576040517f08c379a00000000000000000000000000000000000000000000000000000000081526004016107dc906120b4565b60405180910390fd5b6000826040516107f59190612051565b90815260200160405180910390206000808201600061081491906114d9565b60018201600061082491906114d9565b6002820160006101000a81549073ffffffffffffffffffffffffffffffffffffffff0219169055600382016000905560048201600061086391906114d9565b60058201600061087391906114d9565b50508180519060200120600180808054905061088f9190612103565b815481106108a05761089f612137565b5b906000526020600020016040516108b79190612209565b6040518091039020036108f95760018054806108d6576108d5612220565b5b6001900381819060005260206000200160006108f291906114d9565b90556109eb565b60005b6001805490508110156109e95782805190602001206001828154811061092557610924612137565b5b9060005260206000200160405161093c9190612209565b6040518091039020036109d657600180808054905061095b9190612103565b8154811061096c5761096b612137565b5b906000526020600020016001828154811061098a57610989612137565b5b9060005260206000200190816109a0919061227a565b5060018054806109b3576109b2612220565b5b6001900381819060005260206000200160006109cf91906114d9565b90556109e9565b80806109e190612362565b9150506108fc565b505b600073ffffffffffffffffffffffffffffffffffffffff16600083604051610a139190612051565b908152602001604051809103902060020160009054906101000a900473ffffffffffffffffffffffffffffffffffffffff1673ffffffffffffffffffffffffffffffffffffffff16149050919050565b60606001805480602002602001604051908101604052809291908181526020016000905b82821015610b33578382906000526020600020018054610aa690611c96565b80601f0160208091040260200160405190810160405280929190818152602001828054610ad290611c96565b8015610b1f5780601f10610af457610100808354040283529160200191610b1f565b820191906000526020600020905b815481529060010190602001808311610b0257829003601f168201915b505050505081526020019060010190610a87565b50505050905090565b610b4461148d565b600073ffffffffffffffffffffffffffffffffffffffff1660008c8c604051610b6e929190611bd1565b908152602001604051809103902060020160009054906101000a900473ffffffffffffffffffffffffffffffffffffffff1673ffffffffffffffffffffffffffffffffffffffff1603610bf6576040517f08c379a0000000000000000000000000000000000000000000000000000000008152600401610bed906120b4565b60405180910390fd5b6040518060c001604052808c8c8080601f016020809104026020016040519081016040528093929190818152602001838380828437600081840152601f19601f8201169050808301925050505050505081526020018a8a8080601f016020809104026020016040519081016040528093929190818152602001838380828437600081840152601f19601f8201169050808301925050505050505081526020018873ffffffffffffffffffffffffffffffffffffffff16815260200187815260200186868080601f016020809104026020016040519081016040528093929190818152602001838380828437600081840152601f19601f82011690508083019250505050505050815260200184848080601f016020809104026020016040519081016040528093929190818152602001838380828437600081840152601f19601f8201169050808301925050505050505081525060008c8c604051610d5b929190611bd1565b90815260200160405180910390206000820151816000019081610d7e9190611e73565b506020820151816001019081610d949190611e73565b5060408201518160020160006101000a81548173ffffffffffffffffffffffffffffffffffffffff021916908373ffffffffffffffffffffffffffffffffffffffff160217905550606082015181600301556080820151816004019081610dfb9190611e73565b5060a0820151816005019081610e119190611e73565b5090505060008b8b604051610e27929190611bd1565b90815260200160405180910390206040518060c0016040529081600082018054610e5090611c96565b80601f0160208091040260200160405190810160405280929190818152602001828054610e7c90611c96565b8015610ec95780601f10610e9e57610100808354040283529160200191610ec9565b820191906000526020600020905b815481529060010190602001808311610eac57829003601f168201915b50505050508152602001600182018054610ee290611c96565b80601f0160208091040260200160405190810160405280929190818152602001828054610f0e90611c96565b8015610f5b5780601f10610f3057610100808354040283529160200191610f5b565b820191906000526020600020905b815481529060010190602001808311610f3e57829003601f168201915b505050505081526020016002820160009054906101000a900473ffffffffffffffffffffffffffffffffffffffff1673ffffffffffffffffffffffffffffffffffffffff1673ffffffffffffffffffffffffffffffffffffffff16815260200160038201548152602001600482018054610fd490611c96565b80601f016020809104026020016040519081016040528092919081815260200182805461100090611c96565b801561104d5780601f106110225761010080835404028352916020019161104d565b820191906000526020600020905b81548152906001019060200180831161103057829003601f168201915b5050505050815260200160058201805461106690611c96565b80601f016020809104026020016040519081016040528092919081815260200182805461109290611c96565b80156110df5780601f106110b4576101008083540402835291602001916110df565b820191906000526020600020905b8154815290600101906020018083116110c257829003601f168201915b50505050508152505090509a9950505050505050505050565b61110061148d565b600073ffffffffffffffffffffffffffffffffffffffff166000848460405161112a929190611bd1565b908152602001604051809103902060020160009054906101000a900473ffffffffffffffffffffffffffffffffffffffff1673ffffffffffffffffffffffffffffffffffffffff16036111b2576040517f08c379a00000000000000000000000000000000000000000000000000000000081526004016111a9906120b4565b60405180910390fd5b600083836040516111c4929190611bd1565b90815260200160405180910390206040518060c00160405290816000820180546111ed90611c96565b80601f016020809104026020016040519081016040528092919081815260200182805461121990611c96565b80156112665780601f1061123b57610100808354040283529160200191611266565b820191906000526020600020905b81548152906001019060200180831161124957829003601f168201915b5050505050815260200160018201805461127f90611c96565b80601f01602080910402602001604051908101604052809291908181526020018280546112ab90611c96565b80156112f85780601f106112cd576101008083540402835291602001916112f8565b820191906000526020600020905b8154815290600101906020018083116112db57829003601f168201915b505050505081526020016002820160009054906101000a900473ffffffffffffffffffffffffffffffffffffffff1673ffffffffffffffffffffffffffffffffffffffff1673ffffffffffffffffffffffffffffffffffffffff1681526020016003820154815260200160048201805461137190611c96565b80601f016020809104026020016040519081016040528092919081815260200182805461139d90611c96565b80156113ea5780601f106113bf576101008083540402835291602001916113ea565b820191906000526020600020905b8154815290600101906020018083116113cd57829003601f168201915b5050505050815260200160058201805461140390611c96565b80601f016020809104026020016040519081016040528092919081815260200182805461142f90611c96565b801561147c5780601f106114515761010080835404028352916020019161147c565b820191906000526020600020905b81548152906001019060200180831161145f57829003601f168201915b505050505081525050905092915050565b6040518060c001604052806060815260200160608152602001600073ffffffffffffffffffffffffffffffffffffffff1681526020016000815260200160608152602001606081525090565b5080546114e590611c96565b6000825580601f106114f75750611516565b601f0160209004906000526020600020908101906115159190611519565b5b50565b5b8082111561153257600081600090555060010161151a565b5090565b6000604051905090565b600080fd5b600080fd5b600080fd5b600080fd5b600080fd5b60008083601f84011261156f5761156e61154a565b5b8235905067ffffffffffffffff81111561158c5761158b61154f565b5b6020830191508360018202830111156115a8576115a7611554565b5b9250929050565b600073ffffffffffffffffffffffffffffffffffffffff82169050919050565b60006115da826115af565b9050919050565b6115ea816115cf565b81146115f557600080fd5b50565b600081359050611607816115e1565b92915050565b6000819050919050565b6116208161160d565b811461162b57600080fd5b50565b60008135905061163d81611617565b92915050565b60008060008060008060008060008060c08b8d03121561166657611665611540565b5b60008b013567ffffffffffffffff81111561168457611683611545565b5b6116908d828e01611559565b9a509a505060208b013567ffffffffffffffff8111156116b3576116b2611545565b5b6116bf8d828e01611559565b985098505060406116d28d828e016115f8565b96505060606116e38d828e0161162e565b95505060808b013567ffffffffffffffff81111561170457611703611545565b5b6117108d828e01611559565b945094505060a08b013567ffffffffffffffff81111561173357611732611545565b5b61173f8d828e01611559565b92509250509295989b9194979a5092959850565b600081519050919050565b600082825260208201905092915050565b60005b8381101561178d578082015181840152602081019050611772565b60008484015250505050565b6000601f19601f8301169050919050565b60006117b582611753565b6117bf818561175e565b93506117cf81856020860161176f565b6117d881611799565b840191505092915050565b6117ec816115cf565b82525050565b6117fb8161160d565b82525050565b600060c083016000830151848203600086015261181e82826117aa565b9150506020830151848203602086015261183882826117aa565b915050604083015161184d60408601826117e3565b50606083015161186060608601826117f2565b506080830151848203608086015261187882826117aa565b91505060a083015184820360a086015261189282826117aa565b9150508091505092915050565b600060208201905081810360008301526118b98184611801565b905092915050565b600080fd5b7f4e487b7100000000000000000000000000000000000000000000000000000000600052604160045260246000fd5b6118fe82611799565b810181811067ffffffffffffffff8211171561191d5761191c6118c6565b5b80604052505050565b6000611930611536565b905061193c82826118f5565b919050565b600067ffffffffffffffff82111561195c5761195b6118c6565b5b61196582611799565b9050602081019050919050565b82818337600083830152505050565b600061199461198f84611941565b611926565b9050828152602081018484840111156119b0576119af6118c1565b5b6119bb848285611972565b509392505050565b600082601f8301126119d8576119d761154a565b5b81356119e8848260208601611981565b91505092915050565b600060208284031215611a0757611a06611540565b5b600082013567ffffffffffffffff811115611a2557611a24611545565b5b611a31848285016119c3565b91505092915050565b60008115159050919050565b611a4f81611a3a565b82525050565b6000602082019050611a6a6000830184611a46565b92915050565b600081519050919050565b600082825260208201905092915050565b6000819050602082019050919050565b6000611aa883836117aa565b905092915050565b6000602082019050919050565b6000611ac882611a70565b611ad28185611a7b565b935083602082028501611ae485611a8c565b8060005b85811015611b205784840389528151611b018582611a9c565b9450611b0c83611ab0565b925060208a01995050600181019050611ae8565b50829750879550505050505092915050565b60006020820190508181036000830152611b4c8184611abd565b905092915050565b60008060208385031215611b6b57611b6a611540565b5b600083013567ffffffffffffffff811115611b8957611b88611545565b5b611b9585828601611559565b92509250509250929050565b600081905092915050565b6000611bb88385611ba1565b9350611bc5838584611972565b82840190509392505050565b6000611bde828486611bac565b91508190509392505050565b600082825260208201905092915050565b7f4e465420616c7265616479206578697374730000000000000000000000000000600082015250565b6000611c31601283611bea565b9150611c3c82611bfb565b602082019050919050565b60006020820190508181036000830152611c6081611c24565b9050919050565b7f4e487b7100000000000000000000000000000000000000000000000000000000600052602260045260246000fd5b60006002820490506001821680611cae57607f821691505b602082108103611cc157611cc0611c67565b5b50919050565b60008190508160005260206000209050919050565b60006020601f8301049050919050565b600082821b905092915050565b600060088302611d297fffffffffffffffffffffffffffffffffffffffffffffffffffffffffffffffff82611cec565b611d338683611cec565b95508019841693508086168417925050509392505050565b6000819050919050565b6000611d70611d6b611d668461160d565b611d4b565b61160d565b9050919050565b6000819050919050565b611d8a83611d55565b611d9e611d9682611d77565b848454611cf9565b825550505050565b600090565b611db3611da6565b611dbe818484611d81565b505050565b5b81811015611de257611dd7600082611dab565b600181019050611dc4565b5050565b601f821115611e2757611df881611cc7565b611e0184611cdc565b81016020851015611e10578190505b611e24611e1c85611cdc565b830182611dc3565b50505b505050565b600082821c905092915050565b6000611e4a60001984600802611e2c565b1980831691505092915050565b6000611e638383611e39565b9150826002028217905092915050565b611e7c82611753565b67ffffffffffffffff811115611e9557611e946118c6565b5b611e9f8254611c96565b611eaa828285611de6565b600060209050601f831160018114611edd5760008415611ecb578287015190505b611ed58582611e57565b865550611f3d565b601f198416611eeb86611cc7565b60005b82811015611f1357848901518255600182019150602085019450602081019050611eee565b86831015611f305784890151611f2c601f891682611e39565b8355505b6001600288020188555050505b505050505050565b600082905092915050565b611f5a8383611f45565b67ffffffffffffffff811115611f7357611f726118c6565b5b611f7d8254611c96565b611f88828285611de6565b6000601f831160018114611fb75760008415611fa5578287013590505b611faf8582611e57565b865550612017565b601f198416611fc586611cc7565b60005b82811015611fed57848901358255600182019150602085019450602081019050611fc8565b8683101561200a5784890135612006601f891682611e39565b8355505b6001600288020188555050505b50505050505050565b600061202b82611753565b6120358185611ba1565b935061204581856020860161176f565b80840191505092915050565b600061205d8284612020565b915081905092915050565b7f4e465420646f6573206e6f742065786973740000000000000000000000000000600082015250565b600061209e601283611bea565b91506120a982612068565b602082019050919050565b600060208201905081810360008301526120cd81612091565b9050919050565b7f4e487b7100000000000000000000000000000000000000000000000000000000600052601160045260246000fd5b600061210e8261160d565b91506121198361160d565b9250828203905081811115612131576121306120d4565b5b92915050565b7f4e487b7100000000000000000000000000000000000000000000000000000000600052603260045260246000fd5b600081905092915050565b60008190508160005260206000209050919050565b6000815461219381611c96565b61219d8186612166565b945060018216600081146121b857600181146121cd57612200565b60ff1983168652811515820286019350612200565b6121d685612171565b60005b838110156121f8578154818901526001820191506020810190506121d9565b838801955050505b50505092915050565b60006122158284612186565b915081905092915050565b7f4e487b7100000000000000000000000000000000000000000000000000000000600052603160045260246000fd5b60008154905061225e81611c96565b9050919050565b60008190508160005260206000209050919050565b818103612288575050612360565b6122918261224f565b67ffffffffffffffff8111156122aa576122a96118c6565b5b6122b48254611c96565b6122bf828285611de6565b6000601f8311600181146122ee57600084156122dc578287015490505b6122e68582611e57565b865550612359565b601f1984166122fc87612265565b965061230786611cc7565b60005b8281101561232f5784890154825560018201915060018501945060208101905061230a565b8683101561234c5784890154612348601f891682611e39565b8355505b6001600288020188555050505b5050505050505b565b600061236d8261160d565b91507fffffffffffffffffffffffffffffffffffffffffffffffffffffffffffffffff820361239f5761239e6120d4565b5b60018201905091905056fea26469706673582212201ab95d1e46054cde58fcf9a4c92dd8ce10201bf4cc9e4464fc604e806288985464736f6c63430008130033",
  "immutableReferences": {},
  "source": "// SPDX-License-Identifier: MIT\npragma solidity ^0.8.4;\n\ncontract NFT_Market {\n\n    struct NFT {\n        string id;\n        string name;\n        address owner;\n        uint256 price;\n        string description;\n        string imageURL;\n    }\n\n    mapping(string => NFT) nfts;\n    string[] nfts_keys;\n\n    function add_nft (\n\t\t\t\t\tstring calldata id, \n\t\t\t\t\tstring calldata name, \n\t\t\t\t\taddress owner, \n\t\t\t\t\tuint256 price, \n\t\t\t\t\tstring calldata description, \n\t\t\t\t\tstring calldata imageURL\n        ) public returns (NFT memory) {\n        \n        require (nfts[id].owner == address(0), \"NFT already exists\");\n\n        nfts[id] = NFT(id, name, owner, price, description, imageURL);\n        nfts_keys.push(id);\n\n\t\t\t\treturn nfts[id];\n    }\n\n    function get_nft_list () public view returns (string[] memory) {\n        \n        return nfts_keys;\n    }\n\n    function get_nft (string calldata id) public view returns (NFT memory) {\n        require (nfts[id].owner != address(0), \"NFT does not exist\");\n        return nfts[id];\n    }\n\n    function mod_nft (\n\t\t\t\tstring calldata id, \n\t\t\t\tstring calldata name, \n\t\t\t\taddress owner, \n\t\t\t\tuint256 price, \n\t\t\t\tstring calldata description, \n\t\t\t\tstring calldata imageURL\n\t\t\t) public returns (NFT memory) {\n        require (nfts[id].owner != address(0), \"NFT does not exist\");\n        nfts[id] = NFT(id, name, owner, price, description, imageURL);\n\n\t\t\t\treturn nfts[id];\n    }\n\n    function del_nft (string memory id) public returns (bool) {\n        require (nfts[id].owner != address(0), \"NFT does not exist\");\n        delete nfts[id];\n\n\t\t\t\tif (keccak256(bytes(nfts_keys[nfts_keys.length - 1])) == keccak256(bytes(id))) {\n\t\t\t\t\tnfts_keys.pop();\n\t\t\t\t} else {\n\t\t\t\t\tfor (uint i = 0; i < nfts_keys.length; i++) {\n\t\t\t\t\t\tif (keccak256(bytes(nfts_keys[i])) == keccak256(bytes(id))) {\n\t\t\t\t\t\t\tnfts_keys[i] = nfts_keys[nfts_keys.length - 1];\n\t\t\t\t\t\t\tnfts_keys.pop();\n\t\t\t\t\t\t\tbreak;\n\t\t\t\t\t\t}\n\t\t\t\t\t}\n\t\t\t\t}\n\n\t\t\t\treturn nfts[id].owner == address(0);\n    }\n}",
  "sourcePath": "/home/dev/Documents/Local_projects/nft/truffle/contracts/NFT_Market.sol",
  "compiler": {
    "name": "solc",
    "version": "0.8.19+commit.7dd6d404.Emscripten.clang"
  },
  "schemaVersion": "3.4.13",
  "updatedAt": "2023-05-18T18:37:45.758Z",
  "networkType": "ethereum",
  "devdoc": {
    "kind": "dev",
    "methods": {},
    "version": 1
  },
  "userdoc": {
    "kind": "user",
    "methods": {},
    "version": 1
  }
}