{
  "contractName": "NFT_Market",
  "abi": [
    {
      "inputs": [
        {
          "internalType": "string",
          "name": "id",
          "type": "string"
        },
        {
          "internalType": "string",
          "name": "name",
          "type": "string"
        },
        {
          "internalType": "address",
          "name": "owner",
          "type": "address"
        },
        {
          "internalType": "uint256",
          "name": "price",
          "type": "uint256"
        },
        {
          "internalType": "string",
          "name": "description",
          "type": "string"
        },
        {
          "internalType": "string",
          "name": "imageURL",
          "type": "string"
        }
      ],
      "name": "add_nft",
      "outputs": [
        {
          "components": [
            {
              "internalType": "string",
              "name": "id",
              "type": "string"
            },
            {
              "internalType": "string",
              "name": "name",
              "type": "string"
            },
            {
              "internalType": "address",
              "name": "owner",
              "type": "address"
            },
            {
              "internalType": "uint256",
              "name": "price",
              "type": "uint256"
            },
            {
              "internalType": "string",
              "name": "description",
              "type": "string"
            },
            {
              "internalType": "string",
              "name": "imageURL",
              "type": "string"
            }
          ],
          "internalType": "struct NFT_Market.NFT",
          "name": "",
          "type": "tuple"
        }
      ],
      "stateMutability": "nonpayable",
      "type": "function"
    },
    {
      "inputs": [],
      "name": "get_nft_list",
      "outputs": [
        {
          "internalType": "string[]",
          "name": "",
          "type": "string[]"
        }
      ],
      "stateMutability": "view",
      "type": "function",
      "constant": true
    },
    {
      "inputs": [
        {
          "internalType": "string",
          "name": "id",
          "type": "string"
        }
      ],
      "name": "get_nft",
      "outputs": [
        {
          "components": [
            {
              "internalType": "string",
              "name": "id",
              "type": "string"
            },
            {
              "internalType": "string",
              "name": "name",
              "type": "string"
            },
            {
              "internalType": "address",
              "name": "owner",
              "type": "address"
            },
            {
              "internalType": "uint256",
              "name": "price",
              "type": "uint256"
            },
            {
              "internalType": "string",
              "name": "description",
              "type": "string"
            },
            {
              "internalType": "string",
              "name": "imageURL",
              "type": "string"
            }
          ],
          "internalType": "struct NFT_Market.NFT",
          "name": "",
          "type": "tuple"
        }
      ],
      "stateMutability": "view",
      "type": "function",
      "constant": true
    },
    {
      "inputs": [
        {
          "internalType": "string",
          "name": "id",
          "type": "string"
        },
        {
          "internalType": "string",
          "name": "name",
          "type": "string"
        },
        {
          "internalType": "address",
          "name": "owner",
          "type": "address"
        },
        {
          "internalType": "uint256",
          "name": "price",
          "type": "uint256"
        },
        {
          "internalType": "string",
          "name": "description",
          "type": "string"
        },
        {
          "internalType": "string",
          "name": "imageURL",
          "type": "string"
        }
      ],
      "name": "mod_nft",
      "outputs": [
        {
          "components": [
            {
              "internalType": "string",
              "name": "id",
              "type": "string"
            },
            {
              "internalType": "string",
              "name": "name",
              "type": "string"
            },
            {
              "internalType": "address",
              "name": "owner",
              "type": "address"
            },
            {
              "internalType": "uint256",
              "name": "price",
              "type": "uint256"
            },
            {
              "internalType": "string",
              "name": "description",
              "type": "string"
            },
            {
              "internalType": "string",
              "name": "imageURL",
              "type": "string"
            }
          ],
          "internalType": "struct NFT_Market.NFT",
          "name": "",
          "type": "tuple"
        }
      ],
      "stateMutability": "nonpayable",
      "type": "function"
    },
    {
      "inputs": [
        {
          "internalType": "string",
          "name": "id",
          "type": "string"
        }
      ],
      "name": "del_nft",
      "outputs": [
        {
          "internalType": "bool",
          "name": "",
          "type": "bool"
        }
      ],
      "stateMutability": "nonpayable",
      "type": "function"
    }
  ],
  "bytecode": "0x608060405234801561001057600080fd5b50612422806100206000396000f3fe608060405234801561001057600080fd5b50600436106100575760003560e01c80630ce6a97a1461005c5780631662db351461008c5780635d3ee946146100bc5780636119d840146100da578063e30208721461010a575b600080fd5b6100766004803603810190610071919061176e565b61013a565b60405161008391906119ca565b60405180910390f35b6100a660048036038101906100a19190611b1c565b6107a8565b6040516100b39190611b80565b60405180910390f35b6100c4610aa6565b6040516100d19190611c5d565b60405180910390f35b6100f460048036038101906100ef919061176e565b610b7f565b60405161010191906119ca565b60405180910390f35b610124600480360381019061011f9190611c7f565b6111af565b60405161013191906119ca565b60405180910390f35b6101426115b8565b600073ffffffffffffffffffffffffffffffffffffffff1660008c8c60405161016c929190611cfc565b908152602001604051809103902060020160009054906101000a900473ffffffffffffffffffffffffffffffffffffffff1673ffffffffffffffffffffffffffffffffffffffff1614610267576040518060c001604052806040518060400160405280601281526020017f4e465420616c72656164792065786973747300000000000000000000000000008152508152602001604051806020016040528060008152508152602001600073ffffffffffffffffffffffffffffffffffffffff1681526020016000815260200160405180602001604052806000815250815260200160405180602001604052806000815250815250905061079a565b6040518060c001604052808c8c8080601f016020809104026020016040519081016040528093929190818152602001838380828437600081840152601f19601f8201169050808301925050505050505081526020018a8a8080601f016020809104026020016040519081016040528093929190818152602001838380828437600081840152601f19601f8201169050808301925050505050505081526020018873ffffffffffffffffffffffffffffffffffffffff16815260200187815260200186868080601f016020809104026020016040519081016040528093929190818152602001838380828437600081840152601f19601f82011690508083019250505050505050815260200184848080601f016020809104026020016040519081016040528093929190818152602001838380828437600081840152601f19601f8201169050808301925050505050505081525060008c8c6040516103cc929190611cfc565b908152602001604051809103902060008201518160000190816103ef9190611f21565b5060208201518160010190816104059190611f21565b5060408201518160020160006101000a81548173ffffffffffffffffffffffffffffffffffffffff021916908373ffffffffffffffffffffffffffffffffffffffff16021790555060608201518160030155608082015181600401908161046c9190611f21565b5060a08201518160050190816104829190611f21565b5090505060018b8b909180600181540180825580915050600190039060005260206000200160009091929091929091929091925091826104c3929190611ffe565b5060008b8b6040516104d6929190611cfc565b90815260200160405180910390206040518060c00160405290816000820180546104ff90611d44565b80601f016020809104026020016040519081016040528092919081815260200182805461052b90611d44565b80156105785780601f1061054d57610100808354040283529160200191610578565b820191906000526020600020905b81548152906001019060200180831161055b57829003601f168201915b5050505050815260200160018201805461059190611d44565b80601f01602080910402602001604051908101604052809291908181526020018280546105bd90611d44565b801561060a5780601f106105df5761010080835404028352916020019161060a565b820191906000526020600020905b8154815290600101906020018083116105ed57829003601f168201915b505050505081526020016002820160009054906101000a900473ffffffffffffffffffffffffffffffffffffffff1673ffffffffffffffffffffffffffffffffffffffff1673ffffffffffffffffffffffffffffffffffffffff1681526020016003820154815260200160048201805461068390611d44565b80601f01602080910402602001604051908101604052809291908181526020018280546106af90611d44565b80156106fc5780601f106106d1576101008083540402835291602001916106fc565b820191906000526020600020905b8154815290600101906020018083116106df57829003601f168201915b5050505050815260200160058201805461071590611d44565b80601f016020809104026020016040519081016040528092919081815260200182805461074190611d44565b801561078e5780601f106107635761010080835404028352916020019161078e565b820191906000526020600020905b81548152906001019060200180831161077157829003601f168201915b50505050508152505090505b9a9950505050505050505050565b60008073ffffffffffffffffffffffffffffffffffffffff166000836040516107d191906120ff565b908152602001604051809103902060020160009054906101000a900473ffffffffffffffffffffffffffffffffffffffff1673ffffffffffffffffffffffffffffffffffffffff16036108275760009050610aa1565b60008260405161083791906120ff565b9081526020016040518091039020600080820160006108569190611604565b6001820160006108669190611604565b6002820160006101000a81549073ffffffffffffffffffffffffffffffffffffffff021916905560038201600090556004820160006108a59190611604565b6005820160006108b59190611604565b5050818051906020012060018080805490506108d19190612145565b815481106108e2576108e1612179565b5b906000526020600020016040516108f9919061224b565b60405180910390200361093b57600180548061091857610917612262565b5b6001900381819060005260206000200160006109349190611604565b9055610a2d565b60005b600180549050811015610a2b5782805190602001206001828154811061096757610966612179565b5b9060005260206000200160405161097e919061224b565b604051809103902003610a1857600180808054905061099d9190612145565b815481106109ae576109ad612179565b5b90600052602060002001600182815481106109cc576109cb612179565b5b9060005260206000200190816109e291906122bc565b5060018054806109f5576109f4612262565b5b600190038181906000526020600020016000610a119190611604565b9055610a2b565b8080610a23906123a4565b91505061093e565b505b600073ffffffffffffffffffffffffffffffffffffffff16600083604051610a5591906120ff565b908152602001604051809103902060020160009054906101000a900473ffffffffffffffffffffffffffffffffffffffff1673ffffffffffffffffffffffffffffffffffffffff161490505b919050565b60606001805480602002602001604051908101604052809291908181526020016000905b82821015610b76578382906000526020600020018054610ae990611d44565b80601f0160208091040260200160405190810160405280929190818152602001828054610b1590611d44565b8015610b625780601f10610b3757610100808354040283529160200191610b62565b820191906000526020600020905b815481529060010190602001808311610b4557829003601f168201915b505050505081526020019060010190610aca565b50505050905090565b610b876115b8565b600073ffffffffffffffffffffffffffffffffffffffff1660008c8c604051610bb1929190611cfc565b908152602001604051809103902060020160009054906101000a900473ffffffffffffffffffffffffffffffffffffffff1673ffffffffffffffffffffffffffffffffffffffff1603610cac576040518060c001604052806040518060400160405280601281526020017f4e465420646f6573206e6f7420657869737400000000000000000000000000008152508152602001604051806020016040528060008152508152602001600073ffffffffffffffffffffffffffffffffffffffff168152602001600081526020016040518060200160405280600081525081526020016040518060200160405280600081525081525090506111a1565b6040518060c001604052808c8c8080601f016020809104026020016040519081016040528093929190818152602001838380828437600081840152601f19601f8201169050808301925050505050505081526020018a8a8080601f016020809104026020016040519081016040528093929190818152602001838380828437600081840152601f19601f8201169050808301925050505050505081526020018873ffffffffffffffffffffffffffffffffffffffff16815260200187815260200186868080601f016020809104026020016040519081016040528093929190818152602001838380828437600081840152601f19601f82011690508083019250505050505050815260200184848080601f016020809104026020016040519081016040528093929190818152602001838380828437600081840152601f19601f8201169050808301925050505050505081525060008c8c604051610e11929190611cfc565b90815260200160405180910390206000820151816000019081610e349190611f21565b506020820151816001019081610e4a9190611f21565b5060408201518160020160006101000a81548173ffffffffffffffffffffffffffffffffffffffff021916908373ffffffffffffffffffffffffffffffffffffffff160217905550606082015181600301556080820151816004019081610eb19190611f21565b5060a0820151816005019081610ec79190611f21565b5090505060008b8b604051610edd929190611cfc565b90815260200160405180910390206040518060c0016040529081600082018054610f0690611d44565b80601f0160208091040260200160405190810160405280929190818152602001828054610f3290611d44565b8015610f7f5780601f10610f5457610100808354040283529160200191610f7f565b820191906000526020600020905b815481529060010190602001808311610f6257829003601f168201915b50505050508152602001600182018054610f9890611d44565b80601f0160208091040260200160405190810160405280929190818152602001828054610fc490611d44565b80156110115780601f10610fe657610100808354040283529160200191611011565b820191906000526020600020905b815481529060010190602001808311610ff457829003601f168201915b505050505081526020016002820160009054906101000a900473ffffffffffffffffffffffffffffffffffffffff1673ffffffffffffffffffffffffffffffffffffffff1673ffffffffffffffffffffffffffffffffffffffff1681526020016003820154815260200160048201805461108a90611d44565b80601f01602080910402602001604051908101604052809291908181526020018280546110b690611d44565b80156111035780601f106110d857610100808354040283529160200191611103565b820191906000526020600020905b8154815290600101906020018083116110e657829003601f168201915b5050505050815260200160058201805461111c90611d44565b80601f016020809104026020016040519081016040528092919081815260200182805461114890611d44565b80156111955780601f1061116a57610100808354040283529160200191611195565b820191906000526020600020905b81548152906001019060200180831161117857829003601f168201915b50505050508152505090505b9a9950505050505050505050565b6111b76115b8565b600073ffffffffffffffffffffffffffffffffffffffff16600084846040516111e1929190611cfc565b908152602001604051809103902060020160009054906101000a900473ffffffffffffffffffffffffffffffffffffffff1673ffffffffffffffffffffffffffffffffffffffff16036112dc576040518060c001604052806040518060400160405280601281526020017f4e465420646f6573206e6f7420657869737400000000000000000000000000008152508152602001604051806020016040528060008152508152602001600073ffffffffffffffffffffffffffffffffffffffff168152602001600081526020016040518060200160405280600081525081526020016040518060200160405280600081525081525090506115b2565b600083836040516112ee929190611cfc565b90815260200160405180910390206040518060c001604052908160008201805461131790611d44565b80601f016020809104026020016040519081016040528092919081815260200182805461134390611d44565b80156113905780601f1061136557610100808354040283529160200191611390565b820191906000526020600020905b81548152906001019060200180831161137357829003601f168201915b505050505081526020016001820180546113a990611d44565b80601f01602080910402602001604051908101604052809291908181526020018280546113d590611d44565b80156114225780601f106113f757610100808354040283529160200191611422565b820191906000526020600020905b81548152906001019060200180831161140557829003601f168201915b505050505081526020016002820160009054906101000a900473ffffffffffffffffffffffffffffffffffffffff1673ffffffffffffffffffffffffffffffffffffffff1673ffffffffffffffffffffffffffffffffffffffff1681526020016003820154815260200160048201805461149b90611d44565b80601f01602080910402602001604051908101604052809291908181526020018280546114c790611d44565b80156115145780601f106114e957610100808354040283529160200191611514565b820191906000526020600020905b8154815290600101906020018083116114f757829003601f168201915b5050505050815260200160058201805461152d90611d44565b80601f016020809104026020016040519081016040528092919081815260200182805461155990611d44565b80156115a65780601f1061157b576101008083540402835291602001916115a6565b820191906000526020600020905b81548152906001019060200180831161158957829003601f168201915b50505050508152505090505b92915050565b6040518060c001604052806060815260200160608152602001600073ffffffffffffffffffffffffffffffffffffffff1681526020016000815260200160608152602001606081525090565b50805461161090611d44565b6000825580601f106116225750611641565b601f0160209004906000526020600020908101906116409190611644565b5b50565b5b8082111561165d576000816000905550600101611645565b5090565b6000604051905090565b600080fd5b600080fd5b600080fd5b600080fd5b600080fd5b60008083601f84011261169a57611699611675565b5b8235905067ffffffffffffffff8111156116b7576116b661167a565b5b6020830191508360018202830111156116d3576116d261167f565b5b9250929050565b600073ffffffffffffffffffffffffffffffffffffffff82169050919050565b6000611705826116da565b9050919050565b611715816116fa565b811461172057600080fd5b50565b6000813590506117328161170c565b92915050565b6000819050919050565b61174b81611738565b811461175657600080fd5b50565b60008135905061176881611742565b92915050565b60008060008060008060008060008060c08b8d0312156117915761179061166b565b5b60008b013567ffffffffffffffff8111156117af576117ae611670565b5b6117bb8d828e01611684565b9a509a505060208b013567ffffffffffffffff8111156117de576117dd611670565b5b6117ea8d828e01611684565b985098505060406117fd8d828e01611723565b965050606061180e8d828e01611759565b95505060808b013567ffffffffffffffff81111561182f5761182e611670565b5b61183b8d828e01611684565b945094505060a08b013567ffffffffffffffff81111561185e5761185d611670565b5b61186a8d828e01611684565b92509250509295989b9194979a5092959850565b600081519050919050565b600082825260208201905092915050565b60005b838110156118b857808201518184015260208101905061189d565b60008484015250505050565b6000601f19601f8301169050919050565b60006118e08261187e565b6118ea8185611889565b93506118fa81856020860161189a565b611903816118c4565b840191505092915050565b611917816116fa565b82525050565b61192681611738565b82525050565b600060c083016000830151848203600086015261194982826118d5565b9150506020830151848203602086015261196382826118d5565b9150506040830151611978604086018261190e565b50606083015161198b606086018261191d565b50608083015184820360808601526119a382826118d5565b91505060a083015184820360a08601526119bd82826118d5565b9150508091505092915050565b600060208201905081810360008301526119e4818461192c565b905092915050565b600080fd5b7f4e487b7100000000000000000000000000000000000000000000000000000000600052604160045260246000fd5b611a29826118c4565b810181811067ffffffffffffffff82111715611a4857611a476119f1565b5b80604052505050565b6000611a5b611661565b9050611a678282611a20565b919050565b600067ffffffffffffffff821115611a8757611a866119f1565b5b611a90826118c4565b9050602081019050919050565b82818337600083830152505050565b6000611abf611aba84611a6c565b611a51565b905082815260208101848484011115611adb57611ada6119ec565b5b611ae6848285611a9d565b509392505050565b600082601f830112611b0357611b02611675565b5b8135611b13848260208601611aac565b91505092915050565b600060208284031215611b3257611b3161166b565b5b600082013567ffffffffffffffff811115611b5057611b4f611670565b5b611b5c84828501611aee565b91505092915050565b60008115159050919050565b611b7a81611b65565b82525050565b6000602082019050611b956000830184611b71565b92915050565b600081519050919050565b600082825260208201905092915050565b6000819050602082019050919050565b6000611bd383836118d5565b905092915050565b6000602082019050919050565b6000611bf382611b9b565b611bfd8185611ba6565b935083602082028501611c0f85611bb7565b8060005b85811015611c4b5784840389528151611c2c8582611bc7565b9450611c3783611bdb565b925060208a01995050600181019050611c13565b50829750879550505050505092915050565b60006020820190508181036000830152611c778184611be8565b905092915050565b60008060208385031215611c9657611c9561166b565b5b600083013567ffffffffffffffff811115611cb457611cb3611670565b5b611cc085828601611684565b92509250509250929050565b600081905092915050565b6000611ce38385611ccc565b9350611cf0838584611a9d565b82840190509392505050565b6000611d09828486611cd7565b91508190509392505050565b7f4e487b7100000000000000000000000000000000000000000000000000000000600052602260045260246000fd5b60006002820490506001821680611d5c57607f821691505b602082108103611d6f57611d6e611d15565b5b50919050565b60008190508160005260206000209050919050565b60006020601f8301049050919050565b600082821b905092915050565b600060088302611dd77fffffffffffffffffffffffffffffffffffffffffffffffffffffffffffffffff82611d9a565b611de18683611d9a565b95508019841693508086168417925050509392505050565b6000819050919050565b6000611e1e611e19611e1484611738565b611df9565b611738565b9050919050565b6000819050919050565b611e3883611e03565b611e4c611e4482611e25565b848454611da7565b825550505050565b600090565b611e61611e54565b611e6c818484611e2f565b505050565b5b81811015611e9057611e85600082611e59565b600181019050611e72565b5050565b601f821115611ed557611ea681611d75565b611eaf84611d8a565b81016020851015611ebe578190505b611ed2611eca85611d8a565b830182611e71565b50505b505050565b600082821c905092915050565b6000611ef860001984600802611eda565b1980831691505092915050565b6000611f118383611ee7565b9150826002028217905092915050565b611f2a8261187e565b67ffffffffffffffff811115611f4357611f426119f1565b5b611f4d8254611d44565b611f58828285611e94565b600060209050601f831160018114611f8b5760008415611f79578287015190505b611f838582611f05565b865550611feb565b601f198416611f9986611d75565b60005b82811015611fc157848901518255600182019150602085019450602081019050611f9c565b86831015611fde5784890151611fda601f891682611ee7565b8355505b6001600288020188555050505b505050505050565b600082905092915050565b6120088383611ff3565b67ffffffffffffffff811115612021576120206119f1565b5b61202b8254611d44565b612036828285611e94565b6000601f8311600181146120655760008415612053578287013590505b61205d8582611f05565b8655506120c5565b601f19841661207386611d75565b60005b8281101561209b57848901358255600182019150602085019450602081019050612076565b868310156120b857848901356120b4601f891682611ee7565b8355505b6001600288020188555050505b50505050505050565b60006120d98261187e565b6120e38185611ccc565b93506120f381856020860161189a565b80840191505092915050565b600061210b82846120ce565b915081905092915050565b7f4e487b7100000000000000000000000000000000000000000000000000000000600052601160045260246000fd5b600061215082611738565b915061215b83611738565b925082820390508181111561217357612172612116565b5b92915050565b7f4e487b7100000000000000000000000000000000000000000000000000000000600052603260045260246000fd5b600081905092915050565b60008190508160005260206000209050919050565b600081546121d581611d44565b6121df81866121a8565b945060018216600081146121fa576001811461220f57612242565b60ff1983168652811515820286019350612242565b612218856121b3565b60005b8381101561223a5781548189015260018201915060208101905061221b565b838801955050505b50505092915050565b600061225782846121c8565b915081905092915050565b7f4e487b7100000000000000000000000000000000000000000000000000000000600052603160045260246000fd5b6000815490506122a081611d44565b9050919050565b60008190508160005260206000209050919050565b8181036122ca5750506123a2565b6122d382612291565b67ffffffffffffffff8111156122ec576122eb6119f1565b5b6122f68254611d44565b612301828285611e94565b6000601f831160018114612330576000841561231e578287015490505b6123288582611f05565b86555061239b565b601f19841661233e876122a7565b965061234986611d75565b60005b828110156123715784890154825560018201915060018501945060208101905061234c565b8683101561238e578489015461238a601f891682611ee7565b8355505b6001600288020188555050505b5050505050505b565b60006123af82611738565b91507fffffffffffffffffffffffffffffffffffffffffffffffffffffffffffffffff82036123e1576123e0612116565b5b60018201905091905056fea264697066735822122016bf1882512008118f5b426be4975b70b18788e0bd92e0b0ba99963962a3de6864736f6c63430008130033",
  "immutableReferences": {},
  "source": "// SPDX-License-Identifier: MIT\npragma solidity ^0.8.4;\n\ncontract NFT_Market {\n\n    struct NFT {\n        string id;\n        string name;\n        address owner;\n        uint256 price;\n        string description;\n        string imageURL;\n    }\n\n    mapping(string => NFT) nfts;\n    string[] nfts_keys;\n\n    function add_nft (\n\t\t\t\t\tstring calldata id, \n\t\t\t\t\tstring calldata name, \n\t\t\t\t\taddress owner, \n\t\t\t\t\tuint256 price, \n\t\t\t\t\tstring calldata description, \n\t\t\t\t\tstring calldata imageURL\n        ) public returns (NFT memory) {\n        \n        if (nfts[id].owner != address(0)) {\n            return NFT(\"NFT already exists\", \"\", address(0), 0, \"\", \"\");\n        }\n\n        nfts[id] = NFT(id, name, owner, price, description, imageURL);\n        nfts_keys.push(id);\n\n\t\t\t\treturn nfts[id];\n    }\n\n    function get_nft_list () public view returns (string[] memory) {\n        \n        return nfts_keys;\n    }\n\n    function get_nft (string calldata id) public view returns (NFT memory) {\n        if (nfts[id].owner == address(0)) {\n            return NFT(\"NFT does not exist\", \"\", address(0), 0, \"\", \"\");\n        }\n\n        return nfts[id];\n    }\n\n    function mod_nft (\n\t\t\t\tstring calldata id, \n\t\t\t\tstring calldata name, \n\t\t\t\taddress owner, \n\t\t\t\tuint256 price, \n\t\t\t\tstring calldata description, \n\t\t\t\tstring calldata imageURL\n\t\t\t) public returns (NFT memory) {\n        if (nfts[id].owner == address(0)) {\n            return NFT(\"NFT does not exist\", \"\", address(0), 0, \"\", \"\");\n        }\n\n        nfts[id] = NFT(id, name, owner, price, description, imageURL);\n        return nfts[id];\n    }\n\n    function del_nft (string memory id) public returns (bool) {\n        if (nfts[id].owner == address(0)) {\n            return false;\n        }\n        delete nfts[id];\n\n        if (keccak256(bytes(nfts_keys[nfts_keys.length - 1])) == keccak256(bytes(id))) {\n            nfts_keys.pop();\n        } else {\n            for (uint i = 0; i < nfts_keys.length; i++) {\n                if (keccak256(bytes(nfts_keys[i])) == keccak256(bytes(id))) {\n                    nfts_keys[i] = nfts_keys[nfts_keys.length - 1];\n                    nfts_keys.pop();\n                    break;\n                }\n            }\n        }\n\n        return nfts[id].owner == address(0);\n    }\n}",
  "sourcePath": "/home/dev/Documents/Local_projects/nft/truffle/contracts/NFT_Market.sol",
  "compiler": {
    "name": "solc",
    "version": "0.8.19+commit.7dd6d404.Emscripten.clang"
  },
  "schemaVersion": "3.4.13",
  "updatedAt": "2023-05-20T16:39:34.045Z",
  "networkType": "ethereum",
  "devdoc": {
    "kind": "dev",
    "methods": {},
    "version": 1
  },
  "userdoc": {
    "kind": "user",
    "methods": {},
    "version": 1
  }
}